:020000040800F2
:1000000000000120C5020008CB020008CF02000852
:1000100041030008450300088D03000800000000AC
:10002000000000000000000000000000D5030008F0
:10003000D903000800000000DD030008E103000808
:10004000F1030008F1030008F1030008F1030008C0
:10005000F1030008F10300086D1700088917000874
:10006000F1030008F1030008F1030008F1030008A0
:10007000F1030008F1030008F1030008F103000890
:10008000F1030008F1030008F1030008000000007C
:10009000000000000000000000000000F103000864
:1000A000F1030008F1030008F1030008F103000860
:1000B000F1030008F1030008F1030008F103000850
:1000C000F1030008F1030008F1030008F103000840
:1000D000F103000835100008F103000800000000DB
:1000E000F1030008F1030008F1030008000000001C
:1000F000000000000000000000000000F103000804
:1001000000000000F1030008F1030008F1030008FB
:1001100000000000000000000000000000000000DF
:10012000F1030008F1030008F1030008F1030008DF
:10013000F1030008000000000000000000000000C3
:10014000000000000000000000000000F1030008B3
:10015000F1030008F1030008F1030008F1030008AF
:10016000F1030008F1030008000000000000000097
:10017000000000000000000000000000000000007F
:1001800000000000F1030008000000000000000073
:10019000F103000800B583B000F046FE384B394A41
:1001A0001360394A1360394900E02146384B9942BF
:1001B0000BD20A684B6801F10C0488689842F4D9A4
:1001C0001168196004330432F8E72E4B1A68314B7A
:1001D0009A4200D0FEE72C4B1A682F4B9A42F9D175
:1001E000274B2E4A13602E4A13602E4B05E0002049
:1001F000106004329342FAD80B462B4A934204D241
:10020000194651F8082B5B68F4E7244B1B6813B9B7
:10021000234B1B6803B1FEE701F008FF694601A804
:1002200000F094FD214C224BE41AA4100025AC42AE
:1002300014DC204C204BE41AA4100025AC4213DC43
:100240000099019802F044FA05461C4C1C4BE41A34
:10025000A410002C0EDC284600F04AFD144B53F885
:10026000253098470135E2E7134B53F8253098477E
:100270000135E3E7013C124B53F824309847E8E797
:10028000BABADECA0000002074000020F40300089F
:100290000C04000878563412325476987800002006
:1002A000700100200C0400081C0400081C04000855
:1002B0001C0400081C0400081C0400081C0400089E
:1002C0001C04000808B5FFF765FF00BEFEE71EF03E
:1002D000040F0CBFEFF30880EFF309807146414A29
:1002E00010472DE9F04182B004468846124B5E6B00
:1002F0009F6B9D6A1B6B13F0020F03D00E4BDB6AE2
:10030000002B0CDB0D4800F033FDCDF800803B46A0
:1003100032462946204600F093FD00BEFEE74BF62C
:10032000AB6100F007FE0028ECD0034B4FF0004219
:10033000DA6202B0BDE8F08100ED00E06844000838
:1003400000BEFEE71EF0040F0CBFEFF30880EFF3D2
:1003500009807146244A10472DE9F04182B00446D5
:100360008846084B5E6B9F6B9D6A074800F000FD56
:10037000CDF800803B4632462946204600F060FD1D
:1003800000BEFEE700ED00E0784400081EF0040F18
:100390000CBFEFF30880EFF309807146134A104752
:1003A0002DE9F04182B004468846084B5E6B9F6B96
:1003B0009D6A074800F0DCFCCDF800803B463246E1
:1003C0002946204600F03CFD00BEFEE700ED00E0BF
:1003D0008444000800BEFEE700BEFEE700BEFEE764
:1003E00070470000E302000859030008A103000859
:0403F00000BEFEE766
:1003F400C44600080000002078000020C44600081D
:10040400000000100000001078000020740100209B
:080414000000001000000010C0
:1004200010B50446074B1868074BA3FB0030800942
:1004300000F090F8002221464FF0FF3000F044F821
:10044000002010BD0C000020D34D621008B50B4BEE
:100450001A6842F400721A601A6842F480621A60E4
:100460001A6842F480721A60032000F00FF80F201F
:10047000FFF7D6FF02F0CEF9002008BD003C024095
:10048000014B1868704700BF5001002010B50446AA
:10049000C31E042B0FD80A4AD36823F4E0631B045D
:1004A0001B0C240204F4E064234343F0BF6343F4D1
:1004B0000033D36010BDA421024800F04FFCEAE7EE
:1004C00000ED00E09842000870B505460C4616465F
:1004D0000F2A25D80F2C28D81B4BDB68C3F3022327
:1004E000C3F10702042A28BF0422191D062921D9B5
:1004F000033B4FF0FF3101FA02F224EA02049C4070
:1005000001FA03F326EA03063443002D14DB240129
:10051000E4B205F1604505F5614585F8004370BD1D
:10052000BC210A4800F01AFCD4E7BD21074800F0BE
:1005300015FCD1E70023DCE705F00F052401E4B248
:10054000034B5C55EBE700BF00ED00E0984200086C
:1005500014ED00E00138B0F1807F0AD2064B5860FC
:10056000064AF02182F823100020986007221A60C2
:1005700070470120704700BF10E000E000ED00E090
:1005800010B50446042800D038B9042C0BD0094A11
:10059000136823F00403136010BD40F2B311064842
:1005A00000F0DCFBF1E7034A136843F00403136037
:1005B000F2E700BF10E000E09842000830B583B0D9
:1005C000044603680F2B29D8236813F0010F3DD090
:1005D0006368012B01D9052B25D1A34B9B6803F040
:1005E0000C03042B29D0A04B9B6803F00C03082BB1
:1005F0001ED022799D4B1A706368002B50D0FFF7F4
:100600003FFF0546984B1B6813F4003F1ED1FFF7D0
:1006100037FF401B6428F5D90320E3E1F521944816
:1006200000F09CFBD0E7FA21914800F097FBD4E75B
:100630008D4B5B6813F4800FDBD08B4B1B6813F47E
:10064000003F03D06368002B00F0C981236813F0DA
:10065000020F5DD0E368012B31D823691F2B34D8FA
:10066000814B9B6813F00C0F3AD07F4B9B6803F0D3
:100670000C03082B2FD0E368002B74D07D4B012294
:100680001A60FFF7FDFE0546774B1B6813F0020F5B
:100690005AD1FFF7F5FE401B0228F5D90320A1E14E
:1006A000FFF7EEFE0546704B1B6813F4003FCDD0FC
:1006B000FFF7E6FE401B6428F5D9032092E14FF4D2
:1006C00096716B4800F04AFBC7E740F22D1168486D
:1006D00000F044FBC4E7644B5B6813F4800FCAD19D
:1006E000614B1B6813F0020F04D0E368012B01D0AB
:1006F000012077E15C48036823F0F8032169F822C0
:1007000092FAA2F2B2FA82F201FA02F21343036001
:10071000236813F0080F50D06369012B35D8636943
:10072000002B38D0544B01221A60FFF7A9FE054672
:100730004D4B5B6F13F0020F3FD1FFF7A1FE401B43
:100740000228F5D903204DE14748036823F0F80358
:100750002169F82292FAA2F2B2FA82F201FA02F2C6
:1007600013430360D4E7434B00221A60FFF788FE6F
:1007700005463D4B1B6813F0020FC9D0FFF780FE02
:10078000401B0228F5D903202CE140F26D113848B6
:1007900000F0E4FAC3E7384B00221A60FFF770FE5E
:1007A0000546314B5B6F13F0020F06D0FFF768FE72
:1007B000401B0228F5D9032014E1236813F0040F2D
:1007C00060D0A368012B01D9052B1FD10023019311
:1007D000254B1A6C42F080521A641B6C03F0805354
:1007E0000193019B254A136843F480731360FFF75C
:1007F00047FE0546214B1B6813F4807F0CD1FFF7A1
:100800003FFE401B0228F5D90320EBE040F2971190
:10081000174800F0A3FAD9E7227A194B1A70A36897
:1008200083B1FFF72DFE05460F4B1B6F13F0020F30
:1008300028D1FFF725FE401B41F288339842F3D9B7
:100840000320CFE0FFF71CFE0546074B1B6F13F09C
:10085000020F17D0FFF714FE401B41F28833984275
:10086000F3D90320BEE000BF003802400238024046
:10087000DC42000800004742800E47420070004002
:1008800070380240A369022B39D8A369002B00F00D
:10089000A880564A926802F00C02082A00F0A48050
:1008A000022B40F08880E36913B1B3F5800F2CD19F
:1008B000236A3F2B2FD8636A323BB3F5BF7F30D812
:1008C000A36A022B05D0042B03D0062B01D0082BE2
:1008D0002DD1E36A043B0B2B2FD8454B00221A6025
:1008E000FFF7CEFD0546414B1B6813F0007F2AD071
:1008F000FFF7C6FD401B0228F5D9032072E04FF434
:10090000E6713C4800F02AFABFE740F2D5113948B9
:1009100000F024FACCE74FF4EB71364800F01EFAF1
:10092000C9E740F2D711334800F018FAC8E74FF48E
:10093000EC71304800F012FACBE740F2D9112D48A3
:1009400000F00CFAC9E7E369226A1343616A47F6CB
:10095000C07292FAA2F2B2FA82F201FA02F21343E0
:10096000A26A5208013A4FF4403191FAA1F1B1FA6A
:1009700081F18A401343E16A4FF0706292FAA2F269
:10098000B2FA82F201FA02F21343184A5360184B8A
:1009900001221A60FFF774FD0446144B1B6813F024
:1009A000007F06D1FFF76CFD001B0228F5D903205C
:1009B00018E0002016E00E4B00221A60FFF760FDE1
:1009C00004460A4B1B6813F0007F06D0FFF758FD62
:1009D000001B0228F5D9032004E0002002E00120DA
:1009E00000E0002003B030BD0120FBE700380240EA
:1009F00060004742DC420008214B9B6803F00C0377
:100A0000042B3AD0082B01D01E4870471C4B586865
:100A100000F03F005B6813F4800F1ED01A4AB2FB4F
:100A2000F0F2174B586847F6C073184093FAA3F3D7
:100A3000B3FA83F3D84000FB02F0114B5B6803F478
:100A400040334FF4403292FAA2F2B2FA82F2D3402B
:100A500001335B00B0FBF3F070470A4AB2FBF0F2DF
:100A6000074B586847F6C073184093FAA3F3B3FADC
:100A700083F3D84000FB02F0DFE70348704700BF74
:100A8000003802400024F40040787D0170B504462F
:100A90000D460368013B0E2B11D8072D15D88C4B42
:100AA0001B6803F00F03AB4215D2EBB2884A1370F8
:100AB000136803F00F03AB420DD0012070BD40F26C
:100AC0003721844800F04AF9E7E74FF40E71814876
:100AD00000F044F9E3E7236813F0020F18D0A3688D
:100AE0007BB1802B0DD0902B0BD0A02B09D0B02B3D
:100AF00007D0C02B05D0D02B03D0E02B01D0F02B9A
:100B000037D1754A936823F0F003A1680B439360D3
:100B1000236813F0010F73D06368032B2FD8636829
:100B2000012B32D09A1E012A36D96B4A126812F074
:100B3000020F00F0CA8068498A6822F0030213435A
:100B40008B60FFF79DFC06466368012B2BD0022BC0
:100B500038D0032B45D0604B9B6813F00C0F4FD05F
:100B6000FFF78EFC801B41F288339842F3D90320B3
:100B7000A4E740F24F21574800F0F0F8C1E740F2F7
:100B80005621544800F0EAF8C9E7534A126812F4B3
:100B9000003FD0D1012091E74F4A126812F0007F48
:100BA000C9D101208AE74C4B9B6803F00C03042B4E
:100BB00026D0FFF765FC801B41F288339842F2D9BA
:100BC00003207BE7444B9B6803F00C03082B17D0F2
:100BD000FFF756FC801B41F288339842F2D903207C
:100BE0006CE73D4B9B6803F00C030C2B08D0FFF720
:100BF00047FC801B41F288339842F2D903205DE71D
:100C0000334B1B6803F00F03AB4209D9EAB2304BF8
:100C10001A701B6803F00F03AB4201D001204DE7AF
:100C2000236813F0040F14D0E3685BB1B3F5805F61
:100C300008D0B3F5A05F05D0B3F5C05F02D0B3F51F
:100C4000E05F36D1244A936823F4E053E1680B4314
:100C50009360236813F0080F15D023695BB1B3F5D7
:100C6000805F08D0B3F5A05F05D0B3F5C05F02D0B8
:100C7000B3F5E05F23D1184A936823F460432169F8
:100C800043EAC1039360FFF7B7FE134B9B6803F081
:100C9000F003F02292FAA2F2B2FA82F2D3400F4AA3
:100CA000D35CD8400E4B18600F20FFF7B9FB002033
:100CB00004E74FF42D71074800F050F8C2E740F206
:100CC000BB21044800F04AF8D5E70120F6E600BF52
:100CD000003C0240DC42000800380240CC420008E0
:100CE0000C000020014B1868704700BF0C0000206A
:100CF000FEE7000008B5034800F052F80120FFF7B6
:100D0000F7FF00BF0C43000808B503460C4A126801
:100D10005AB10B4A1068033323F003030344094A12
:100D2000934206D8064A136008BD054A0649116079
:100D3000EFE702F027FE0C2303604FF0FF30F3E7EC
:100D40007C00002000FC00207401002001230360CF
:100D5000014B0B60704700BF0400002008B50A4635
:100D60000146024800F004F8FFF7C4FF20430008E2
:100D70000FB400B583B004AB53F8042B019380216A
:100D8000064802F043FE002803DD0146034800F058
:100D900047F803B05DF804EB04B07047840000200E
:100DA00010B5044602F0FEFD0146204600F038F87A
:100DB0000121024800F034F810BD00BFE4430008F0
:100DC0002DE9F04385B004460F4643560BB10E465D
:100DD0001EE0042528462146ABBE0446384605B031
:100DE000BDE8F08314F9011B04AA1A4402F8101C90
:100DF0000133AB42F6D304AA1344002203F8102CAB
:100E00004FF00408E94640464946ABBE8046761B93
:100E1000002EE3D03546102E28BF10250023E8E72A
:100E200008B5FFF7CDFF08BD08B500F093F8024AFA
:100E3000024B9A6008BD00BF0000000800ED00E012
:100E4000F8B504460D4617461E462748FFF790FFA3
:100E500021682648FFF78CFF61682548FFF788FF67
:100E6000A1682448FFF784FFE1682348FFF780FF6B
:100E700021692248FFF77CFF61692148FFF778FF6D
:100E8000A1692048FFF774FFE1691F48FFF770FF71
:100E90001E48FFF76DFF29461D48FFF769FF1D4CEF
:100EA000E16A1D48FFF764FF216B1C48FFF760FFF4
:100EB000E16B1B48FFF75CFF15F0800F0AD115F4BA
:100EC000004F0CD11748FFF753FF06991648FFF75C
:100ED0004FFFF8BD39461548FFF74AFFEFE73146A7
:100EE0001348FFF745FFEDE74C4300085C4300085B
:100EF0006C4300087C4300088C4300089C430008B6
:100F0000AC430008BC430008CC430008DC430008A5
:100F1000E843000800ED00E0F8430008084400083A
:100F200018440008484400085044000828440008B9
:100F30003844000883691A888A4201D0002070472B
:100F40000268033A012A03D8023383610120704703
:100F5000002070470C4B1A6842F001021A60002111
:100F600099601A6822F0847222F480321A60074A6B
:100F70005A601A6822F480221A60D960044B4FF03C
:100F800000629A60704700BF0038024010300024B1
:100F900000ED00E0224B9B6803F00C03042B14D0FF
:100FA000082B16D01BB11F4B1F4A1A6002E01D4BC5
:100FB0001D4A1A601A4B9B68C3F303131B4AD15C8A
:100FC000184A1368CB4013607047164B184A1A60D2
:100FD000F0E7134B5A685B6803F03F0312F4800F8D
:100FE00013D0134AB2FBF3F20D4B5B68C3F38813C3
:100FF00003FB02F30A4A5268C2F301420132520073
:10100000B3FBF2F3074A1360D4E7074AB2FBF3F2EB
:10101000034B5B68C3F3881303FB02F3EAE700BFEB
:10102000003802400C0000200024F4009444000822
:1010300040787D0108B5024B1B68984708BD00BF8A
:10104000040100200A4B1A6842F400221A601A6850
:1010500022F480221A609A6822F001029A609A684B
:1010600022F002029A601A6842F001021A60704788
:1010700000380240012808D0022867D0032800F079
:10108000B280042800F0F080704701390B29FBD8AA
:1010900001A353F821F000BFC9100008D5100008C3
:1010A000E110000889100008ED100008F910000890
:1010B00005110008111100081D1100082911000870
:1010C00035110008411100086C4A136C43F080533D
:1010D00013647047694A136C43F400031364704748
:1010E000664A136C43F4800313647047634A136CBD
:1010F00043F4003313647047604A136C43F40043B5
:10110000136470475D4A136C43F480431364704763
:101110005A4A136C43F4006313647047574A136CC4
:1011200043F0080313647047544A136C43F00403FC
:1011300013647047514A136C43F002031364704701
:101140004E4A136C43F001031364704701390A29B6
:101150009AD8DFE801F0060C12181E242A30363C1B
:101160004200464A536C43F4802353647047434A19
:10117000536C43F4003353647047404A536C43F458
:101180008033536470473D4A536C43F48043536447
:1011900070473A4A536C43F4005353647047374ADC
:1011A000536C43F4805353647047344A536C43F494
:1011B000006353647047314A536C43F48073536443
:1011C00070472E4A536C43F02003536470472B4AF8
:1011D000536C43F0100353647047284A536C43F038
:1011E000010353647047013908293FF64DAFDFE82A
:1011F00001F0050B11171D23292F35001F4A136B12
:1012000043F48003136370471C4A136B43F40013C9
:1012100013637047194A136B43F480531363704789
:10122000164A136B43F0800313637047134A136B22
:1012300043F0100313637047104A136B43F0080325
:10124000136370470D4A136B43F004031363704735
:101250000A4A136B43F0020313637047074A136B88
:1012600043F001031363704701297FF40DAF034A74
:10127000536B43F08003536306E700BF003802401E
:1012800054280ED810B4440900F01F00054951F845
:101290002430012202FA00F0184341F8240010BC67
:1012A0007047704700E100E0044B1860000240F016
:1012B000BF6040F40030024B1860704758010020B6
:1012C0000CED00E0214B1B68033B042B3CD8DFE80E
:1012D00003F0030C192633000901C9B200F1604084
:1012E00000F5614080F8001370474901C9B200F170
:1012F000604000F5614080F800131201D2B280F81E
:10130000002370478901C9B200F1604000F56140D7
:1013100080F800131201D2B280F800237047C9018F
:10132000C9B200F1604000F5614080F8001312017D
:10133000D2B280F8002370471201D2B200F16040AF
:1013400000F5614080F80023704700BF580100207D
:1013500010B4012812D018B102281DD010BC70475B
:10136000144B1868490003248C4020EA04001860DC
:10137000186802FA01F101431960EFE70E4B186893
:10138000490003248C4020EA04001860186802FA1F
:1013900001F101431960E1E7084B18684900032493
:1013A0008C4020EA04001860186802FA01F1014339
:1013B0001960D3E700000240000402400008024028
:1013C00010B4012810D018B1022819D010BC7047F1
:1013D000114B586801248C4020EA0400586058687A
:1013E0008A4002435A60F1E70C4B586801248C4054
:1013F00020EA0400586058688A4002435A60E5E7D2
:10140000074B586801248C4020EA04005860586853
:101410008A4002435A60D9E70000024000040240BB
:101420000008024010B4012812D018B102281DD0C3
:1014300010BC7047144B9868490003248C4020EA84
:1014400004009860986802FA01F101439960EFE79F
:101450000E4B9868490003248C4020EA04009860F1
:10146000986802FA01F101439960E1E7084B986836
:10147000490003248C4020EA04009860986802FA2E
:1014800001F101439960D3E70000024000040240EB
:101490000008024010B4012812D018B102281DD053
:1014A00010BC7047144BD868490003248C4020EAD4
:1014B0000400D860D86802FA01F10143D960EFE76F
:1014C0000E4BD868490003248C4020EA0400D86001
:1014D000D86802FA01F10143D960E1E7084BD86806
:1014E000490003248C4020EA0400D860D86802FA3E
:1014F00001F10143D960D3E700000240000402403B
:101500000008024001280AD018B102280DD000209E
:101510007047094B1869C84000F001007047074B3D
:101520001869C84000F001007047054B1869C840B1
:1015300000F00100704700BF0000024000040240BC
:101540000008024012B1012A21D0704701280CD0B6
:1015500010B1022812D070471C484369012202FAD8
:1015600001F123EA010141617047194843690122F1
:1015700002FA01F123EA010141617047154843690C
:10158000012202FA01F123EA0101416170470128B9
:101590000BD010B1022810D070470C4843690122CB
:1015A00002FA01F119434161704709484369012278
:1015B00002FA01F11943416170470648436901226B
:1015C00002FA01F119434161704700BF0000024077
:1015D000000402400008024012B1012A1BD07047EB
:1015E00001280AD010B102280ED070471031012313
:1015F00003FA01F1144B996170471031012303FA8A
:1016000001F1124B996170471031012303FA01F186
:101610000F4B99617047012809D010B102280CD0F6
:101620007047012303FA01F1074B996170470123C9
:1016300003FA01F1054B99617047012303FA01F1A7
:10164000034B9961704700BF000002400004024054
:101650000008024003490B68012202FA00F003432C
:101660000B607047003C014001280BD010B10228EC
:1016700010D070470D48C368012202FA01F11943E6
:10168000C160704709488368012202FA01F11943D9
:1016900081607047054AD068012303FA01F10843CD
:1016A000D060936819439160704700BF003C0140CF
:1016B000072852D8DFE800F0040D17212B343E48EC
:1016C000264B9A6822F00F029A609A68114399603B
:1016D0007047224B9A6822F0F0029A609A6842EAB8
:1016E0000111996070471D4B9A6822F470629A60EC
:1016F0009A6842EA012199607047184B9A6822F46F
:1017000070429A609A6842EA013199607047134BBF
:10171000DA6822F00F02DA60DA681143D9607047A4
:101720000E4BDA6822F0F002DA60DA6842EA011160
:10173000D9607047094BDA6822F47062DA60DA68BF
:1017400042EA0121D9607047044BDA6822F4704202
:10175000DA60DA6842EA0131D96070470038014046
:10176000014B1860704700BF0801002008B5044B0A
:101770001B689847034A536943F00103536108BD4E
:1017800008010020003C014008B5044B5B68984705
:10179000034A536943F00203536108BD0801002066
:1017A000003C01400A4B9A6822F002029A605A6893
:1017B00022F080725A605A6822F000725A609A6869
:1017C00042F001029A609A6822F400629A607047BF
:1017D000002001400E4BDA6A22F48012DA62DA6AE3
:1017E00022F40012DA62DA6A22F48002DA62DA6A39
:1017F00022F40002DA625A6B22F01F025A635A6B1B
:10180000104358639A6842F080429A60704700BF64
:101810000020014010B50446024BD86C01F0F0FCEA
:10182000206010BD0020014082B00023ADF80630DA
:1018300012E0BDF8043001339BB2ADF80430BDF8BE
:1018400004309BB240F66B429342F2D9BDF80630A9
:1018500001339BB2ADF80630BDF806309BB283422F
:1018600003D20023ADF80430E9E702B0704782B03C
:101870000023ADF8063010E0BDF8043001339BB210
:10188000ADF80430BDF804309BB2022BF4D9BDF89A
:10189000063001339BB2ADF80630BDF806309BB27E
:1018A000834203D20023ADF80430EBE702B0704767
:1018B00008B501220C211046FFF74AFD00220A213B
:1018C0000120FFF745FD08BD10B500220C210120C5
:1018D000FFF782FE0A20FFF7CAFF01220C21104603
:1018E000FFF77AFE0A20FFF7C2FF00220C21012039
:1018F000FFF772FE0A210120FFF704FE0028F9D04D
:10190000002400E001340A210120FFF7FBFD00283C
:10191000F8D1BCB1204601F0C1F80BA3D3E90023F4
:1019200001F036F90AA3D3E9002301F031F90022CE
:10193000094B01F02DF90022084B01F029F901F0C3
:1019400039FB0446204610BD8DEDB5A0F7C6703EAC
:101950000000000080C014410000E03F0000FC3F98
:1019600038B504460D460022FFF7F2FC0022294656
:101970002046FFF725FD002229462046FFF752FDAD
:10198000012229462046FFF785FD38BD70B5054682
:101990000E46FFF7B7FD044608B1204670BD31463C
:1019A0002846FFF7AFFD0028F7D10446F5E738B524
:1019B00004460D460022FFF7CBFC002229462046B4
:1019C000FFF7FEFC002229462046FFF72BFD0122EF
:1019D00029462046FFF75EFD38BD000000000000EC
:1019E00008B54FF0665101F063FC0F4901F060FC4F
:1019F00001F076F808A3D3E9002300F011FF08A353
:101A0000D3E9002301F0EEF90022084B00F00AFFB1
:101A100001F0F0FA08BD00BFE9263108AC1CCA3F4E
:101A2000000000803D0AA73F0000A04000002C40BD
:101A300000B583B0032201210020FFF789FCFFF7E6
:101A4000B1FE0120FFF7C6FE01A8FFF7E3FE0198F3
:101A5000FFF7C6FF03B05DF804FB000000000000C4
:101A600000B583B0032200210846FFF771FCFFF7A1
:101A700099FE0020FFF7AEFE01A8FFF7CBFE4FF066
:101A80006651019801F014FC094901F011FC01F0C4
:101A900027F805A3D3E9002301F0A4F901F0AAFA7D
:101AA00003B05DF804FB00BF7B14AE47E17A843FCE
:101AB0000000A04008B5012802D0022806D008BDC9
:101AC000012209211046FFF743FCF8E70122082113
:101AD0001046FFF73DFCF2E708B5012802D00228C6
:101AE00006D008BD012209211046FFF72BFDF8E7BB
:101AF000012208211046FFF725FDF2E708B501286D
:101B000002D0022806D008BD002209210120FFF7DB
:101B100019FDF8E7002208210120FFF713FDF2E785
:101B200010B50446002202211046FFF70BFD04F019
:101B3000010204210020FFF705FDC4F34002052146
:101B40000020FFF7FFFCC4F3800206210020FFF70E
:101B5000F9FCC4F3C00207210020FFF7F3FCC4F333
:101B6000001208210020FFF7EDFCC4F34012092108
:101B70000020FFF7E7FCC4F380120A210020FFF7E2
:101B8000E1FCE2090B210020FFF7DCFC012203212C
:101B90000020FFF7D7FC0520FFF746FE00220321B7
:101BA0001046FFF7CFFC10BD08B50122042100202C
:101BB000FFF7CEFB012205210020FFF7C9FB012220
:101BC00006210020FFF7C4FB012207210020FFF7B8
:101BD000BFFB012208210020FFF7BAFB01220921E7
:101BE0000020FFF7B5FB01220A210020FFF7B0FB20
:101BF00001220B210020FFF7ABFB01220221002074
:101C0000FFF7A6FB012203210020FFF7A1FB4FF401
:101C10007A70FFF709FE3820FFF782FF0120FFF7F7
:101C20007FFF0C20FFF77CFF08BD10B504460122A2
:101C300002210020FFF786FC04F0010204210020AD
:101C4000FFF780FCC4F3400205210020FFF77AFC77
:101C5000C4F3800206210020FFF774FCC4F3C00225
:101C600007210020FFF76EFCC4F3001208210020BA
:101C7000FFF768FCC4F3401209210020FFF762FC63
:101C8000C4F380120A210020FFF75CFCE2090B215B
:101C90000020FFF757FC012203210020FFF752FC30
:101CA0000520FFF7C1FD002203211046FFF74AFC83
:101CB00010BD08B50120FFF733FF08BD38B5054654
:101CC000002403E0FFF7B1FF0134E4B2285D0028EF
:101CD000F8D138BDF0B585B004460D46002600E0C9
:101CE0001E46234BA3FB0423DB0803EB83035A00AC
:101CF000A31A04AA324402F80C3C0A22002320460C
:101D0000294601F09BFC04460D46731C5BB200287B
:101D1000E6D109E004AB334413F80C0C3030C0B208
:101D2000FFF783FF013E76B2002EF3DA18E0A90038
:101D3000A60041EA9477321947EB0503961843EB66
:101D4000030734463D460A48A0FB0630C00800EBB6
:101D500080004300F01AC0B23030C0B2FFF765FF18
:101D600000239D4208BFA442E1D105B0F0BD00BFF1
:101D7000CDCCCCCC00B583B0074B1B88ADF804307C
:101D800002AB184410F8040C0844C0B2FFF7C8FEB8
:101D900003B05DF804FB00BFA444000810B50124A3
:101DA00015E0002221460120FFF7D2FA0022214649
:101DB0000120FFF705FB002221460120FFF732FB3F
:101DC000012221461046FFF765FB0134E4B2032CE3
:101DD000E7D904241AE0012221461046FFF7B8FA99
:101DE000002221460120FFF7EBFA002221460120C4
:101DF000FFF718FB002221460120FFF74BFB0122D1
:101E000021461046FFF79EFB0134E4B2072CE2D9CD
:101E100010BD000070B584B01F4B93E8070004AB01
:101E200003E90700002604252AE021460120FFF7E8
:101E300069FB0028F9D00134E4B2032C19D82146FB
:101E40000120FFF75FFB0028F5D10120FFF7ECFC34
:101E500021460120FFF756FB0028ECD12B1F611E05
:101E600003EB430304AA1A440B46134413F80C6C07
:101E7000DBE7012229461046FFF764FB0135EDB28E
:101E8000072D06D8002229460120FFF75BFB01241D
:101E9000D3E7304604B070BDA844000808B501225D
:101EA0000C210020FFF754FA01220D210020FFF73A
:101EB0004FFA03220E210020FFF74AFA01220E21D9
:101EC0000020FFF7E7FA01220C210020FFF740FA7B
:101ED00001220D210020FFF73BFA01220E210020F4
:101EE000FFF736FA08BD08B5012813D010B1022853
:101EF00020D008BD00220C211046FFF729FA01224C
:101F00000D210020FFF724FA00220E211046FFF7D2
:101F10001FFAEEE701220C210020FFF719FA002238
:101F20000D211046FFF714FA00220E211046FFF78C
:101F30000FFADEE701220C210020FFF709FA012247
:101F40000D210020FFF704FA01220E210020FFF7E7
:101F5000FFF9CEE738B504460D460122FFF7F8F940
:101F6000002229462046FFF72BFA00222946204668
:101F7000FFF758FA002229462046FFF78BFA38BDB2
:101F800008B50122FFF7DEFA08BD08B50022FFF709
:101F9000D9FA08BD70B594B000240194204B1A6C96
:101FA00042F080521A641B6C03F080530193019B32
:101FB00002941C4B1A6842F440421A601B6803F4F6
:101FC00040430293029B0123089309934FF480033B
:101FD0000F93192310934FF4A873119304261296AC
:101FE0000723139302250E9508A8FEF7E7FA0F239F
:101FF0000393049505944FF4805306930794294660
:1020000003A8FEF743FDFEF76DFE074BA3FB003070
:102010008009FEF79FFA3046FEF7B2FA14B070BDA1
:102020000038024000700040D34D621008B5FEF742
:102030000DFAFFF7AFFFFEF7ADFF08BD10B50F219A
:102040000020FFF7A3FCB0B3FFF733FE0220FFF739
:1020500043FD0120FFF752FD0D210120FFF790FF06
:102060002848FFF72BFEC020FFF75AFD264C2046DC
:10207000FFF724FE2548FFF721FE2046FFF71EFE4E
:102080000220FFF730FF4FF47A70FFF7CDFBFFF728
:1020900010FE0220FFF732FD0D210120FFF775FF32
:1020A0001B4C2046FFF70AFE1A48FFF707FE2046A2
:1020B000FFF704FE10BDFFF7FCFD0020FFF713FF44
:1020C0000120FFF709FD0220FFF718FD0D21012077
:1020D000FFF75BFF104C2046FFF7F0FD0F48FFF7BE
:1020E000EDFD2046FFF7EAFDC020FFF719FD0C4883
:1020F000FFF7E4FD4FF47A70FFF796FBFFF7D9FD89
:10210000D8E700BF5046000884460008644600082F
:10211000E044000870460008604500082C460008AE
:102120003C46000810B58AB0484B93E80300059080
:10213000ADF818100024CDF81A40CDF81E40CDF8A7
:1021400022404348FFF7BAFD4248FFF7B7FD4FF47E
:102150007A70FFF769FB21460120FFF70BFE3E482E
:10216000FFF7ACFD112C14D8FFF754FE0028FBD06C
:10217000232809D00AAA224402F8280C2A20FFF7B3
:1021800054FD0134E4B2EDE70AAB1C44002304F82B
:10219000283CFFF78EFD694605A801F0F9FB48B31E
:1021A00000210846FFF7E6FD2948FFF787FD2B4889
:1021B000FFF784FD2A4C2378013323704FF47A70A3
:1021C000FFF732FB2378032B26D0FFF772FD0021A7
:1021D0000846FFF7CFFD2348FFF770FD2248FFF7C1
:1021E0006DFD4FF47A70FFF71FFBFFF762FD0020D3
:1021F0000AB010BD00210846FFF7BCFD1B48FFF7E1
:102200005DFD1B48FFF75AFD4FF47A70FFF70CFB9A
:10221000FFF74FFD0120EBE700210846FFF7AAFD7D
:102220001448FFF74BFD00210120FFF7A3FD0848EC
:10223000FFF744FD1048FFF741FD41F28830FFF7FA
:10224000F3FA00222270FFF734FDBEE7B444000821
:10225000604500084C4500085C4500086C450008D6
:102260005C01002084460008A0450008484600089C
:10227000644500087C450008904500082DE9F041C0
:102280003E4E3046FFF71AFD3D4D2846FFF716FD3E
:102290003C4C2046FFF712FDC020FFF741FC3A4FAF
:1022A0003846FFF70BFD3948FFF708FDDFF8F080EF
:1022B0004046FFF703FD4FF47A70FFF7B5FAFFF7DA
:1022C000F8FC3046FFF7FAFC2846FFF7F7FC2046FB
:1022D000FFF7F4FCC020FFF723FC4046FFF7EEFCBD
:1022E0002B48FFF7EBFC4046FFF7E8FC4FF47A7011
:1022F000FFF79AFAFFF7DDFC3046FFF7DFFC2846D0
:10230000FFF7DCFC2046FFF7D9FCC020FFF708FCF4
:102310002046FFF7D3FC1F48FFF7D0FC2046FFF70D
:10232000CDFC4FF47A70FFF77FFAFFF7C2FC30461E
:10233000FFF7C4FC2846FFF7C1FC2046FFF7BEFCB0
:10234000C020FFF7EDFB2046FFF7B8FC1248FFF76F
:10235000B5FC2046FFF7B2FC4FF47A70FFF764FA41
:10236000FFF7A7FC3846FFF7A9FC0C48FFF7A6FCCF
:102370003846FFF7A3FCBDE8F08100BF48460008DF
:10238000AC45000884460008E0440008B845000851
:10239000C4450008D4450008E04500087046000820
:1023A0006045000838B5FFF75BFB274C2060FFF75E
:1023B0008BFA0546254B186024682549204601F014
:1023C00015F908B1C82D1AD82149204601F00EF997
:1023D00008B1C72D20D91E49204601F025F908B1C2
:1023E000C82D26D81B48FFF769FC1B48FFF766FC81
:1023F0004FF47A70FFF718FAFFF75BFC38BD174807
:10240000FFF75CFC1648FFF759FC4FF47A70FFF7B2
:102410000BFAFFF74EFCF1E71048FFF74FFC1148AD
:10242000FFF74CFC4FF47A70FFF7FEF9FFF741FC21
:10243000E4E70D48FFF742FC4FF47A70FFF7F4F938
:10244000FFF737FCDAE700BF6401002060010020DD
:102450000000484284460008204600086045000805
:10246000EC450008FC4500080C46000810B5FFF7D5
:10247000F7FA244B1860244901F0D6F810BBFFF797
:1024800018FC224C2046FFF719FC2148FFF716FCE8
:102490001C4B186801F0EAF8FFF71CFC1D48FFF719
:1024A0000DFC2046FFF70AFCC020FFF739FB1A4855
:1024B000FFF704FC0220FFF721FB4FF47A70FFF7CF
:1024C000B3F910BDFFF7F5FB104C2046FFF7F6FB04
:1024D0000F48FFF7F3FB0B4B186801F0C7F8FFF745
:1024E000F9FB0C48FFF7EAFB2046FFF7E7FBC020AB
:1024F000FFF716FB0948FFF7E1FB0220FFF7ECFAB4
:10250000DBE700BF640100200000484248460008A5
:102510002C45000834450008384500080C460008E2
:1025200010B5FFF7D1F9214C20600C210020FFF7F6
:1025300021FC2368C72B1CD902210020FFF71AFCBD
:102540001B48FFF7BBFB194B18680021FFF7C2FBC4
:102550001848FFF7B3FB06210120FFF70BFC1648D4
:10256000FFF7ACFB1548FFF7A9FB0220FFF7C6FAFF
:1025700010BD02210020FFF7FDFB0D48FFF79EFB79
:1025800020680021FFF7A6FB0D48FFF797FB062107
:102590000120FFF7EFFB0B48FFF790FB0748FFF721
:1025A0008DFB0220FFF798FAE2E700BF60010020F0
:1025B000C844000848460008E4440008DC44000819
:1025C000E0440008D444000810B5FFF731FA04468F
:1025D000364B1860364901F027F840BB3549204694
:1025E00001F004F8002841D1FFF763FB324C20468C
:1025F000FFF764FB3148FFF761FB2C4B186801F0D3
:1026000035F8FFF767FB2E48FFF758FB2046FFF72A
:1026100055FBC020FFF784FA2A48FFF74FFB022042
:10262000FFF76CFA4FF47A70FFF7FEF810BDFFF772
:1026300040FB214C2046FFF741FB2048FFF73EFBC3
:102640001A4B186801F012F8FFF744FB1C48FFF71B
:1026500035FB2046FFF732FBC020FFF761FA1A482E
:10266000FFF72CFB0220FFF737FADBE7FFF721FB30
:10267000114C2046FFF722FB1048FFF71FFB0B4BC6
:10268000186800F0F3FFFFF725FB0D48FFF716FB76
:102690002046FFF713FBC020FFF742FA0B48FFF775
:1026A0000DFB0220FFF718FABCE700BF6C01002009
:1026B000000052430000484360450008EC44000815
:1026C000F84400081C450008FC4400080C450008BC
:1026D00008B5FEF7B7FC09210320FEF7CBFC082163
:1026E0000320FEF7C7FC08210220FEF7C3FC0421EB
:1026F0000220FEF7BFFCFFF757FAFFF74FFBFFF78B
:10270000CDFB00210120FFF752F90120FFF7D2F99C
:102710000220FFF7CFF9FFF7CBF80D210120FFF7DB
:1027200019FC0F210020FFF71BF90620FEF7A8FD7A
:102730000320FEF7B9FD002211460620FEF7C2FD78
:102740000020FEF787FF00210120FEF78DFF012109
:102750000020FEF7ADFF2B48FFF702F8FFF7E2FC81
:102760000028FBD0FFF78AFD17E0274D2870C02016
:10277000FFF7D6F9254C2046FFF7A0FA2878FFF797
:1027800054FA2046FFF79AFA4FF47A70FFF74CF8A4
:10279000FFF78FFA07E0FFF705FEFFF73BFB1C4B47
:1027A00018700028E1D1184B1B782A3B0A2BF4D86B
:1027B00001A252F823F000BFF72700089B2700086A
:1027C0009B2700089B2700089B2700089B270008E1
:1027D0009B27000897270008E5270008EB2700083B
:1027E000F1270008FFF742FED7E7FFF799FED4E78D
:1027F000FFF7EAFED1E7FFF741FD034B00221A7015
:10280000CBE700BF3D2000086A0100208046000899
:10281000680100207047000081F0004102E000BF25
:1028200083F0004330B54FEA41044FEA430594EA90
:10283000050F08BF90EA020F1FBF54EA000C55EACB
:10284000020C7FEA645C7FEA655C00F0E2804FEA9C
:102850005454D4EB5555B8BF6D420CDD2C4480EA7E
:10286000020281EA030382EA000083EA010180EAAE
:10287000020281EA0303362D88BF30BD11F0004FFC
:102880004FEA01314FF4801C4CEA113102D0404232
:1028900061EB410113F0004F4FEA03334CEA13336D
:1028A00002D0524263EB430394EA050F00F0A78085
:1028B000A4F10104D5F1200E0DDB02FA0EFC22FA80
:1028C00005F2801841F1000103FA0EF2801843FA74
:1028D00005F359410EE0A5F120050EF1200E012A65
:1028E00003FA0EFC28BF4CF0020C43FA05F3C018A3
:1028F00051EBE37101F0004507D54FF0000EDCF11C
:10290000000C7EEB00006EEB0101B1F5801F1BD3C4
:10291000B1F5001F0CD349085FEA30004FEA3C0CC8
:1029200004F101044FEA445212F5800F80F09A80BE
:10293000BCF1004F08BF5FEA500C50F1000041EBC2
:10294000045141EA050130BD5FEA4C0C404141EBC6
:10295000010111F4801FA4F10104E9D191F0000FED
:1029600004BF01460020B1FA81F308BF2033A3F170
:102970000B03B3F120020CDA0C3208DD02F1140C67
:10298000C2F10C0201FA0CF021FA02F10CE002F1A2
:102990001402D8BFC2F1200C01FA02F120FA0CFC9B
:1029A000DCBF41EA0C019040E41AA2BF01EB0451E4
:1029B000294330BD6FEA04041F3C1CDA0C340EDCE2
:1029C00004F11404C4F1200220FA04F001FA02F325
:1029D00040EA030021FA04F345EA030130BDC4F1E3
:1029E0000C04C4F1200220FA02F001FA04F340EAD8
:1029F0000300294630BD21FA04F0294630BD94F089
:102A0000000F83F4801306BF81F480110134013D6F
:102A10004EE77FEA645C18BF7FEA655C29D094EAE0
:102A2000050F08BF90EA020F05D054EA000C04BF5E
:102A30001946104630BD91EA030F1EBF0021002049
:102A400030BD5FEA545C05D14000494128BF41F0E8
:102A5000004130BD14F580043CBF01F5801130BD4C
:102A600001F0004545F0FE4141F470014FF00000D7
:102A700030BD7FEA645C1ABF194610467FEA655C88
:102A80001CBF0B46024650EA013406BF52EA03352A
:102A900091EA030F41F4002130BD00BF90F0000F18
:102AA00004BF0021704730B54FF4806404F1320454
:102AB0004FF000054FF0000150E700BF90F0000F0D
:102AC00004BF0021704730B54FF4806404F1320434
:102AD00010F0004548BF40424FF000013EE700BF04
:102AE00042004FEAE2014FEA31014FEA02701FBF94
:102AF00012F07F4393F07F4F81F06051704732F0C6
:102B00007F4208BF704793F07F4F04BF41F400211C
:102B1000704730B54FF4607401F0004521F000417A
:102B20001CE700BF50EA010208BF704730B54FF004
:102B300000050AE050EA010208BF704730B511F005
:102B4000004502D5404261EB41014FF4806404F13D
:102B500032045FEA915C3FF4D8AE4FF003025FEAC3
:102B6000DC0C18BF03325FEADC0C18BF033202EB47
:102B7000DC02C2F1200300FA03FC20FA02F001FAA1
:102B800003FE40EA0E0021FA02F11444BDE600BF44
:102B900070B54FF0FF0C4CF4E06C1CEA11541DBFF3
:102BA0001CEA135594EA0C0F95EA0C0F00F0DEF8BE
:102BB0002C4481EA030621EA4C5123EA4C5350EAA3
:102BC000013518BF52EA033541F4801143F48013F4
:102BD00038D0A0FB02CE4FF00005E1FB02E506F085
:102BE0000042E0FB03E54FF00006E1FB03569CF0DA
:102BF000000F18BF4EF0010EA4F1FF04B6F5007FE0
:102C000064F5407404D25FEA4E0E6D4146EB060651
:102C100042EAC62141EA55514FEAC52040EA5E50DA
:102C20004FEACE2EB4F1FD0C88BFBCF5E06F1ED884
:102C3000BEF1004F08BF5FEA500E50F1000041EBBB
:102C4000045170BD06F0004646EA010140EA020068
:102C500081EA0301B4EB5C04C2BFD4EB0C0541EA8A
:102C6000045170BD41F480114FF0000E013C00F39F
:102C7000AB8014F1360FDEBF002001F0004170BDC3
:102C8000C4F10004203C35DA0C341BDC04F11404DC
:102C9000C4F1200500FA05F320FA04F001FA05F268
:102CA00040EA020001F0004221F0004110EBD37035
:102CB00021FA04F642EB06015EEA430E08BF20EA61
:102CC000D37070BDC4F10C04C4F1200500FA04F304
:102CD00020FA05F001FA04F240EA020001F0004196
:102CE00010EBD37041F100015EEA430E08BF20EA09
:102CF000D37070BDC4F1200500FA05F24EEA020E51
:102D000020FA04F301FA05F243EA020321FA04F07F
:102D100001F0004121FA04F220EA020000EBD37036
:102D20005EEA430E08BF20EAD37070BD94F0000F36
:102D30000FD101F00046400041EB010111F4801F6A
:102D400008BF013CF7D041EA060195F0000F18BF1B
:102D5000704703F00046520043EB030313F4801F57
:102D600008BF013DF7D043EA0603704794EA0C0F11
:102D70000CEA135518BF95EA0C0F0CD050EA410627
:102D800018BF52EA4306D1D181EA030101F00041A4
:102D90004FF0000070BD50EA410606BF10461946CC
:102DA00052EA430619D094EA0C0F02D150EA0136D8
:102DB00013D195EA0C0F05D152EA03361CBF104619
:102DC00019460AD181EA030101F0004141F0FE41B8
:102DD00041F470014FF0000070BD41F0FE4141F43C
:102DE000780170BD70B54FF0FF0C4CF4E06C1CEA3C
:102DF00011541DBF1CEA135594EA0C0F95EA0C0FF1
:102E000000F0A7F8A4EB050481EA030E52EA0335AB
:102E10004FEA013100F088804FEA03334FF08055CC
:102E200045EA131343EA12634FEA022245EA1115F9
:102E300045EA10654FEA00260EF000419D4208BFAA
:102E4000964244F1FD0404F5407402D25B084FEA57
:102E50003202B61A65EB03055B084FEA32024FF403
:102E600080104FF4002CB6EB020E75EB030E22BF60
:102E7000B61A754640EA0C005B084FEA3202B6EB20
:102E8000020E75EB030E22BFB61A754640EA5C00CF
:102E90005B084FEA3202B6EB020E75EB030E22BF5F
:102EA000B61A754640EA9C005B084FEA3202B6EB60
:102EB000020E75EB030E22BFB61A754640EADC001F
:102EC00055EA060E18D04FEA051545EA16754FEA81
:102ED00006164FEAC30343EA52734FEAC2025FEA9F
:102EE0001C1CC0D111F4801F0BD141EA00014FF02E
:102EF00000004FF0004CB6E711F4801F04BF0143FF
:102F00000020B4F1FD0C88BFBCF5E06F3FF6AFAE1A
:102F1000B5EB030C04BFB6EB020C5FEA500C50F1AA
:102F2000000041EB045170BD0EF0004E4EEA11312D
:102F300014EB5C04C2BFD4EB0C0541EA045170BD34
:102F400041F480114FF0000E013C90E645EA060E78
:102F50008DE60CEA135594EA0C0F08BF95EA0C0FA6
:102F60003FF43BAF94EA0C0F0AD150EA01347FF4EE
:102F700034AF95EA0C0F7FF425AF104619462CE7C5
:102F800095EA0C0F06D152EA03353FF4FDAE104628
:102F9000194622E750EA410618BF52EA43067FF479
:102FA000C5AE50EA41047FF40DAF52EA43057FF409
:102FB000EBAE12E74A0011D212F5001211D20DD574
:102FC0006FF47873B3EB62520ED44FEAC12343F02F
:102FD000004343EA505323FA02F070474FF00000D9
:102FE000704750EA013002D14FF0FF3070474FF088
:102FF000000070474FEA4102B2F1E04324BFB3F54D
:10300000001CDCF1FE5C0DD901F0004C4FEAC0025F
:103010004CEA5070B2F1004F40EB830008BF20F043
:103020000100704711F0804F21D113F13872BCBFFD
:1030300001F00040704741F480114FEA5252C2F152
:103040001802C2F1200C10FA0CF320FA02F018BF9B
:1030500040F001004FEAC1234FEAD32303FA0CFCEE
:1030600040EA0C0023FA02F34FEA4303CCE77FEA7D
:10307000625307D150EA01331EBF4FF0FE4040F4C7
:103080004000704701F0004040F0FE4040F4000076
:10309000704700BF80F0004002E000BF81F00041B7
:1030A00042001FBF5FEA410392EA030F7FEA226CEE
:1030B0007FEA236C6AD04FEA1262D2EB1363C1BF7E
:1030C000D218414048404140B8BF5B42192B88BFED
:1030D000704710F0004F40F4000020F07F4018BF10
:1030E000404211F0004F41F4000121F07F4118BF30
:1030F000494292EA030F3FD0A2F1010241FA03FCD8
:1031000010EB0C00C3F1200301FA03F100F00043BF
:1031100002D5494260EB4000B0F5000F13D3B0F187
:10312000807F06D340084FEA310102F10102FE2AF6
:1031300051D2B1F1004F40EBC25008BF20F0010066
:1031400040EA03007047490040EB000010F4000F14
:10315000A2F10102EDD1B0FA80FCACF1080CB2EBA7
:103160000C0200FA0CF0AABF00EBC2505242184306
:10317000BCBFD0401843704792F0000F81F40001AB
:1031800006BF80F400000132013BB5E74FEA41037E
:103190007FEA226C18BF7FEA236C21D092EA030FEA
:1031A00004D092F0000F08BF0846704790EA010F64
:1031B0001CBF0020704712F07F4F04D1400028BF91
:1031C00040F00040704712F100723CBF00F5000073
:1031D000704700F0004343F0FE4040F400007047A9
:1031E0007FEA226216BF08467FEA23630146420255
:1031F00006BF5FEA412390EA010F40F48000704768
:103200004FF0000304E000BF10F0004348BF40420D
:103210005FEA000C08BF704743F0964301464FF049
:1032200000001CE050EA010208BF70474FF00003A5
:103230000AE000BF50EA010208BF704711F00043E6
:1032400002D5404261EB41015FEA010C02BF8446B6
:103250000146002043F0B64308BFA3F18053A3F515
:103260000003BCFA8CF2083AA3EBC25310DB01FA5C
:1032700002FC634400FA02FCC2F12002BCF1004FE0
:1032800020FA02F243EB020008BF20F00100704771
:1032900002F1200201FA02FCC2F1200250EA4C00C5
:1032A00021FA02F243EB020008BF20EADC7070470B
:1032B0004FF0FF0C1CEAD0521EBF1CEAD15392EA19
:1032C0000C0F93EA0C0F6FD01A4480EA010C4002F5
:1032D00018BF5FEA41211ED04FF0006343EA50104F
:1032E00043EA5111A0FB01310CF00040B1F5000F91
:1032F0003EBF490041EAD3715B0040EA010062F140
:103300007F02FD2A1DD8B3F1004F40EBC25008BF29
:1033100020F00100704790F0000F0CF0004C08BF47
:1033200049024CEA502040EA51207F3AC2BFD2F114
:10333000FF0340EAC250704740F400004FF0000322
:10334000013A5DDC12F1190FDCBF00F0004070475C
:10335000C2F10002410021FA02F1C2F1200200FA9A
:1033600002FC5FEA310040F1000053EA4C0308BF61
:1033700020EADC70704792F0000F00F0004C02BFB2
:10338000400010F4000F013AF9D040EA0C0093F02D
:10339000000F01F0004C02BF490011F4000F013B87
:1033A000F9D041EA0C018FE70CEAD15392EA0C0FF5
:1033B00018BF93EA0C0F0AD030F0004C18BF31F060
:1033C000004CD8D180EA010000F00040704790F036
:1033D000000F17BF90F0004F084691F0000F91F0DA
:1033E000004F14D092EA0C0F01D142020FD193EAA0
:1033F0000C0F03D14B0218BF084608D180EA010028
:1034000000F0004040F0FE4040F40000704740F003
:10341000FE4040F4400070474FF0FF0C1CEAD052D1
:103420001EBF1CEAD15392EA0C0F93EA0C0F69D02D
:10343000A2EB030280EA010C49024FEA402037D098
:103440004FF0805343EA111143EA10130CF000408F
:103450008B4238BF5B0042F17D024FF4000C8B427F
:1034600024BF5B1A40EA0C00B3EB510F24BFA3EB5F
:10347000510340EA5C00B3EB910F24BFA3EB91032F
:1034800040EA9C00B3EBD10F24BFA3EBD10340EA89
:10349000DC001B0118BF5FEA1C1CE0D1FD2A3FF6CF
:1034A00050AF8B4240EBC25008BF20F00100704784
:1034B0000CF0004C4CEA50207F32C2BFD2F1FF0327
:1034C00040EAC250704740F400004FF00003013A58
:1034D00037E792F0000F00F0004C02BF400010F4FC
:1034E000000F013AF9D040EA0C0093F0000F01F010
:1034F000004C02BF490011F4000F013BF9D041EA32
:103500000C0195E70CEAD15392EA0C0F08D1420264
:103510007FF47DAF93EA0C0F7FF470AF084676E737
:1035200093EA0C0F04D14B023FF44CAF08466EE710
:1035300030F0004C18BF31F0004CCAD130F00042DE
:103540007FF45CAF31F000437FF43CAF5FE700BF36
:103550004FF0FF3C06E000BF4FF0010C02E000BF5F
:103560004FF0010C4DF804CD4FEA40024FEA410301
:103570007FEA226C18BF7FEA236C11D001B052EAB7
:10358000530C18BF90EA010F58BFB2EB030088BF7D
:10359000C81738BF6FEAE17018BF40F001007047EC
:1035A0007FEA226C02D15FEA402C05D17FEA236CCE
:1035B000E4D15FEA412CE1D05DF8040B704700BF15
:1035C000844608466146FFE70FB5FFF7C9FF0028AC
:1035D00048BF10F1000F0FBD4DF808EDFFF7F4FFE5
:1035E0000CBF012000205DF808FB00BF4DF808ED7E
:1035F000FFF7EAFF34BF012000205DF808FB00BFA1
:103600004DF808EDFFF7E0FF94BF012000205DF8C2
:1036100008FB00BF4DF808EDFFF7D2FF94BF012073
:1036200000205DF808FB00BF4DF808EDFFF7C8FF6C
:1036300034BF012000205DF808FB00BF53B94AB930
:10364000002908BF00281CBF4FF0FF314FF0FF30AA
:1036500000F096B9ADF1080C6DE904CE00F02AF83F
:10366000DDF804E0DDE9022304B07047D0B5FFF7D0
:1036700037FA00220D4B06460F46FFF789FAFFF78F
:1036800099FC0446FFF70AFA0022094BFFF780FA7B
:1036900002460B4630463946FFF7C2F8FFF78AFC70
:1036A0000022234610431946D0BD00BF0000F03D64
:1036B0000000F0412DE9F047089E04468846002BA3
:1036C0004BD18A42154667D9B2FA82F24AB1C2F1A9
:1036D000200701FA02F320FA07F7954047EA0308AA
:1036E00094404FEA154E230CB8FBFEF71FFA85FCF9
:1036F0000EFB178843EA084307FB0CF1994209D9EE
:10370000EB1807F1FF3080F01B81994240F21881DD
:10371000023F2B445B1AA4B2B3FBFEF00EFB103346
:1037200044EA034400FB0CFCA44509D92C1900F120
:10373000FF3380F00781A44540F2048102382C4415
:1037400040EA0740A4EB0C0400271EB1D44000233C
:10375000C6E900433946BDE8F0878B4209D9002EFF
:1037600000F0EB800027C6E9000138463946BDE885
:10377000F087B3FA83F7002F47D18B4202D38242FE
:1037800000F2FA80841A61EB030301209846002EB0
:10379000E0D0C6E90048DDE702B9FFDEB2FA82F206
:1037A000002A40F08F80491B4FEA154E1FFA85F81A
:1037B0000127B1FBFEFC230C0EFB1C1143EA014365
:1037C00008FB0CF1994207D9EB180CF1FF3002D23B
:1037D000994200F2CD808446591AA3B2B1FBFEF0A3
:1037E0000EFB101443EA044408FB00F8A04507D977
:1037F0002C1900F1FF3302D2A04500F2B680184622
:10380000A4EB080440EA0C409FE7C7F1200CBB4042
:1038100022FA0CFE4EEA030E01FA07F420FA0CF528
:1038200021FA0CF34FEA1E482543B3FBF8F92C0CA0
:1038300008FB19331FFA8EFA44EA034309FB0AF422
:103840009C4202FA07F200FA07F10BD91EEB0303C0
:1038500009F1FF3080F087809C4240F28480A9F11A
:10386000020973441B1BADB2B3FBF8F008FB103325
:1038700045EA034400FB0AFAA24508D91EEB0404FA
:1038800000F1FF336BD2A24569D90238744440EA93
:103890000940A0FB0289A4EB0A044C45C2464B46F2
:1038A00054D351D0002E69D0B1EB0A0564EB030468
:1038B00004FA0CFCFD40FC404CEA0505C6E9005446
:1038C000002747E7C2F1200320FA03F7954001FAE9
:1038D00002F021FA03F34FEA154E3843010CB3FB13
:1038E000FEF71FFA85F80EFB173341EA034107FB89
:1038F00008F38B4204FA02F407D9691807F1FF3C78
:103900002FD28B422DD9023F2944CB1A81B2B3FB6F
:10391000FEF00EFB103341EA034100FB08F38B423B
:1039200007D9691800F1FF3C17D28B4215D902382C
:103930002944C91A40EA07473BE73746304609E7BA
:103940000746E7E61846FBE64145ABD2B8EB020A6C
:1039500069EB0E0201381346A4E76046E9E7184612
:1039600095E76746D1E781467CE702382C4447E774
:10397000ACF1020C2B442FE7384608E73746E9E65E
:10398000704700BF014B1868704700BF100000204F
:1039900010F8012B11F8013B012A28BF9A42F7D0F9
:1039A000D01A7047034613F8012B002AFBD1181ACE
:1039B0000138704730B5141E05469BB0184605DA2D
:1039C0008B232B604FF0FF301BB030BD4FF40273E0
:1039D000ADF80C3014BF04F1FF3323460293059376
:1039E0004FF6FF7300910491ADF80E3002461E9B16
:1039F0006946284600F072F8431CBCBF8B232B603D
:103A0000002CE1D0009B00221A70DDE707B500937F
:103A100013460A46014603480068FFF7CBFF03B090
:103A20005DF804FB100000202DE9F0478E689E42EF
:103A300082460C469046994637D88A8912F4906F90
:103A400031D0256809696F1A6569022305EB4505C0
:103A500095FBF3F509F101033B449D4238BF1D4638
:103A6000530530D5294600F07DFB064650B90C239E
:103A7000CAF80030A38943F04003A3814FF0FF3020
:103A8000BDE8F0873A46216900F0FAFAA38923F4E9
:103A9000906343F08003A381266165613E44ED1B82
:103AA0002660A5604E464E4500D94E4632464146F8
:103AB000206800F0F0FAA3689B1BA36023681E44F3
:103AC00026600020DCE72A4600F0A6FB0646002818
:103AD000E2D12169504600F0F7FAC8E72DE9F04F2E
:103AE0009DB0804603938B891D060C4616460FD564
:103AF0000B696BB9402100F035FB2060206128B9CB
:103B00000C23C8F800304FF0FF30C7E0402363615A
:103B10000023099320238DF8293030238DF82A3093
:103B20004FF0010B37463D4615F8013B0BB1252BF5
:103B30003ED1B7EB060A0BD05346324621464046EB
:103B4000FFF772FF013000F0A480099B53440993F2
:103B50003B78002B00F09D8000234FF0FF32CDE931
:103B60000523049307938DF853301A932F460522AB
:103B700017F8011B4F4800F033FA049BD0B9D9065F
:103B800044BF20228DF853201A0744BF2B228DF802
:103B900053202A782A2A15D0079A2F4600200A2572
:103BA000394611F8013B303B092B4DD9B8B10FE034
:103BB0002F46B8E73F4A801A0BFA00F018430490EA
:103BC0003D46D3E7039A111D12680391002A01DBD9
:103BD000079204E0524243F00203079204933B78B9
:103BE0002E2B0CD17B782A2B33D1039B1A1D1B68FB
:103BF0000392002BB8BF4FF0FF33023705932E4DD1
:103C000039780322284600F0EBF938B14023401BF5
:103C100003FA00F0049B03430137049339782748E3
:103C20008DF8281006227E1C00F0DAF9002838D022
:103C3000234B13BB039B073323F007030833039382
:103C4000099B4B4409936DE705FB023201200F46A7
:103C5000A6E700230137059319460A25384610F8D0
:103C6000012B303A092A03D9002BC8D00591C6E7A9
:103C700005FB012101230746F0E703AB0093224631
:103C8000104B04A94046AFF30080B0F1FF3F8146DE
:103C9000D6D1A3895B063FF536AF09981DB0BDE8C4
:103CA000F08F03AB00932246064B04A9404600F078
:103CB00081F8EAE7884600088E4600089246000828
:103CC00000000000293A00082DE9F04791461F4600
:103CD0008A680B69DDF820809342B8BF1346C9F8A3
:103CE000003091F8432006460C4612B10133C9F862
:103CF00000302368990642BFD9F800300233C9F872
:103D00000030256815F0060507D104F1190AE368AB
:103D1000D9F800209B1AAB4228DC94F84330226883
:103D2000003318BF012392062DD404F14302394613
:103D30003046C047013020D02368E568D9F800201C
:103D400003F00603042B08BFAD1AA36822690CBF59
:103D500025EAE57500259342C4BF9B1AED184FF084
:103D600000091A344D451AD1002008E001235246BB
:103D700039463046C047013003D14FF0FF30BDE82F
:103D8000F0870135C3E7E1185A1C302081F8430061
:103D9000224494F8451082F843100233C5E701230A
:103DA000224639463046C0470130E6D009F10109C4
:103DB000D8E700002DE9F04301F1430C0C46097EE1
:103DC00085B06E291746064698460C9A00F0B380D7
:103DD00022D8632936D00AD8002900F0B9805829A2
:103DE00000F0838004F1420584F8421032E0642937
:103DF00001D06929F6D120681368050603F1040192
:103E00002AD51B681160002B03DA2D225B4284F84F
:103E100043206F480A2239E0732900F09D8008D8BA
:103E20006F2920D07029DDD1236843F0200323605F
:103E300003E0752917D07829D4D1782384F8453048
:103E4000644855E01368191D1B68116004F14205B0
:103E500084F8423001238CE01B68116010F0400FA1
:103E600018BF1BB2CFE713682568181D106028061D
:103E700001D51B6802E06806FBD51B8854486F29F2
:103E800014BF0A220822002184F843106568A56047
:103E9000002DC0F29580216821F004012160002BE3
:103EA0003DD1002D40F08E806546082A0BD1236855
:103EB000DB0708D5236962689A42DEBF302305F824
:103EC000013C05F1FF35ACEB05032361CDF8008023
:103ED0003B4603AA21463046FFF7F6FE01304DD19E
:103EE0004FF0FF3005B0BDE8F083394884F8451045
:103EF000136821681D1D1B6815600A060BD5CA07CB
:103F000044BF41F0200121601BB9226822F0200249
:103F100022601022B7E74D0648BF9BB2EFE7654627
:103F2000B3FBF2F102FB1133C35C05F8013D0B4614
:103F30000029F5D1B9E7136825686169181D10607B
:103F400028061B6801D5196002E06A06FBD51980B6
:103F5000002323616546B9E71368191D11601D68C8
:103F600062680021284600F03BF808B1401B606001
:103F700063682361002384F84330A7E723692A4656
:103F800039463046C0470130AAD023689B0713D476
:103F9000E068039B9842B8BF1846A3E701234A464E
:103FA00039463046C04701309AD00135E368039A5C
:103FB0009B1AAB42F2DCEBE7002504F11909F5E7A7
:103FC000002BACD1037884F8423004F142056CE751
:103FD00099460008AA460008000000000000000002
:103FE00001F0FF01102A2BDB10F0070F08D010F8AA
:103FF000013B013A8B422DD010F0070F42B3F6D1AE
:10400000F0B441EA012141EA014122F007047FF0C6
:1040100000070023F0E80256083C85EA010586EA1D
:10402000010685FA47F5A3FA87F586FA47F6A5FA59
:1040300087F68EB9EED1F0BC01F0FF0102F0070265
:1040400032B110F8013B013A83EA010313B1F8D110
:104050000020704701387047002D06BF35460338F1
:10406000073815F0010F07D1013015F4807F02BF2A
:10407000013015F4C03F0130F0BC0138704700BF7B
:1040800010B5431E0A44914200D110BD11F8014BF6
:1040900003F8014FF7E7884210B501EB020307D898
:1040A000421E99420AD011F8014B02F8014FF8E77D
:1040B0008342F5D98118D21AD34200D110BD13F82A
:1040C000014D01F8014DF7E738B50546002945D007
:1040D00051F8043C0C1F002BB8BFE41800F0D2F8D4
:1040E0001F4A1368104633B9636014602846BDE860
:1040F000384000F0C8B8A3420CD921686218934236
:1041000004BF1A685B68636004BF521822600460D1
:10411000ECE713465A680AB1A242FAD9196858184E
:10412000A0420BD120680144581882421960DDD1A9
:10413000106852685A6001441960D7E702D90C230D
:104140002B60D3E7206821188A4204BF11685268A7
:10415000626004BF091821605C60C7E738BD00BF1A
:104160004801002070B5CD1C25F0030508350C2D45
:1041700038BF0C25002D064601DBA94203D90C23CC
:104180003360002070BD00F07DF8214A146821469C
:1041900091B9204C23681BB9304600F063F82060C9
:1041A0002946304600F05EF8431C24D10C233360CE
:1041B000304600F068F8E4E70B685B1B18D40B2B63
:1041C0000FD90B60CD50CC18304600F05CF804F1EC
:1041D0000B00231D20F00700C31AD3D05A42E2502F
:1041E000D0E78C424B6816BF636013600C46EBE768
:1041F0000C464968CCE7C41C24F00304A04205D057
:10420000211A304600F02EF80130CFD02560DBE7D0
:10421000480100204C010020F8B5074614460E4620
:1042200021B91146BDE8F840FFF79CBF22B9FFF75E
:104230004BFF25462846F8BD00F026F8A0420FD2D5
:1042400021463846FFF78EFF05460028F2D031465A
:104250002246FFF715FF31463846FFF735FFE9E7FD
:104260003546E7E738B5064C002305460846236087
:10427000FCF74AFD431C02D1236803B12B6038BD13
:10428000540100207047704751F8043C181F002B60
:10429000BCBF0B58C01870472E2E2F7379737465EE
:1042A0006D2F7372632F73746D333266342D6861B2
:1042B0006C2F73746D3332663478785F68616C5F2D
:1042C000636F727465782E630000000000000000C8
:1042D0000102030401020304060708092E2E2F73AE
:1042E000797374656D2F7372632F73746D333266D7
:1042F000342D68616C2F73746D3332663478785F57
:1043000068616C5F7263632E6300000061626F72AC
:104310007428292C2065786974696E672E2E2E000A
:104320006173736572745F706172616D28292066B4
:1043300061696C65643A2066696C65202225732288
:104340002C206C696E652025640A0000537461633B
:104350006B206672616D653A0A00000020523020C1
:104360003D2020253038580A00000000205231201E
:104370003D2020253038580A00000000205232200D
:104380003D2020253038580A0000000020523320FC
:104390003D2020253038580A0000000020523132DC
:1043A000203D20253038580A00000000204C5220C3
:1043B0003D2020253038580A0000000020504320BE
:1043C0003D2020253038580A00000000205053526C
:1043D000203D20253038580A000000004653522F57
:1043E0004641523A0A0000002043465352203D20E5
:1043F00020253038580A00002048465352203D20DE
:1044000020253038580A00002044465352203D20D1
:1044100020253038580A00002041465352203D20C4
:1044200020253038580A0000204D4D464152203D8D
:1044300020253038580A00002042464152203D20B5
:1044400020253038580A00004D6973630A000000C7
:10445000204C522F4558435F52455455524E3D20F3
:10446000253038580A0000005B4861726446617567
:104470006C745D0A000000005B4275734661756CE8
:10448000745D0A005B55736167654661756C745DA8
:104490000A00000000000000000000000102030408
:1044A0000607080980C0000031323334353637380A
:1044B000392A302331323334350000000000000047
:1044C000000000000000000044697374616E6365C1
:1044D0003D20000044414E4745520000202020204E
:1044E00020200000534146450000000050726573D3
:1044F000737572653A0000006B5061004869676827
:104500002050726573737572650000004C4F572020
:104510005072657373757265000000004E6F726DA6
:10452000616C2050726573737572650054656D70AF
:104530003A20000043000000436F6F6C2054656D0B
:10454000706572617475726500000000456E746577
:10455000722050617373776F7264000020202020F6
:104560002000000057656C636F6D650057726F6EB9
:10457000672050617373776F7264000053797374AE
:10458000656D2077696C6C206C6F636B00000000B8
:10459000466F72203330205365636F6E6473000082
:1045A00054727920616761696E0000004D61696E27
:1045B000204D656E75000000312D436865636B20EA
:1045C000416C6C00322D54656D706572617475724A
:1045D00065000000332D44697374616E63650000EB
:1045E000342D507265737375726500005265616495
:1045F0007920546F2053746172740000446973749D
:10460000616E6365204572726F7200004869676869
:104610002054656D706572617475726500000000EC
:104620004E6F74205265616479000000456E6769C1
:104630006E65205374617274656400002020202030
:1046400020202020202020202020202000000000EA
:1046500054484520444F4F52204953204F50454E17
:1046600000000000434C4F534520444F4F52000080
:10467000456E7465722043686F69636500000000D1
:104680002020202020202000232D302B2000686CAB
:104690004C00656667454647003031323334353665
:1046A000373839414243444546003031323334359E
:0B46B0003637383961626364656600CC
:0846BC00F8EFFF7F0100000090
:1046C4007856341280000020000000000024F4001A
:1046D40014000020000000000000000000000000A2
:1046E40000000000000000000000000000000000C6
:1046F40000000000000000000000000000000000B6
:1047040000000000000000000000000000000000A5
:104714000000000000000000000000000000000095
:104724000000000000000000000000000000000085
:084734000000000032547698E9
:040000050800019559
:00000001FF
